{
  "contractName": "Election",
  "abi": [
    {
      "inputs": [],
      "payable": false,
      "stateMutability": "nonpayable",
      "type": "constructor"
    },
    {
      "constant": true,
      "inputs": [],
      "name": "admin",
      "outputs": [
        {
          "internalType": "address",
          "name": "",
          "type": "address"
        }
      ],
      "payable": false,
      "stateMutability": "view",
      "type": "function"
    },
    {
      "constant": true,
      "inputs": [
        {
          "internalType": "uint256",
          "name": "",
          "type": "uint256"
        }
      ],
      "name": "candidateDetails",
      "outputs": [
        {
          "internalType": "uint256",
          "name": "candidateId",
          "type": "uint256"
        },
        {
          "internalType": "string",
          "name": "header",
          "type": "string"
        },
        {
          "internalType": "uint256",
          "name": "voteCount",
          "type": "uint256"
        }
      ],
      "payable": false,
      "stateMutability": "view",
      "type": "function"
    },
    {
      "constant": true,
      "inputs": [
        {
          "internalType": "address",
          "name": "",
          "type": "address"
        }
      ],
      "name": "voterDetails",
      "outputs": [
        {
          "internalType": "address",
          "name": "voterAddress",
          "type": "address"
        },
        {
          "internalType": "string",
          "name": "name",
          "type": "string"
        },
        {
          "internalType": "string",
          "name": "phone",
          "type": "string"
        },
        {
          "internalType": "bool",
          "name": "isVerified",
          "type": "bool"
        },
        {
          "internalType": "bool",
          "name": "hasVoted",
          "type": "bool"
        },
        {
          "internalType": "bool",
          "name": "isRegistered",
          "type": "bool"
        }
      ],
      "payable": false,
      "stateMutability": "view",
      "type": "function"
    },
    {
      "constant": true,
      "inputs": [
        {
          "internalType": "uint256",
          "name": "",
          "type": "uint256"
        }
      ],
      "name": "voters",
      "outputs": [
        {
          "internalType": "address",
          "name": "",
          "type": "address"
        }
      ],
      "payable": false,
      "stateMutability": "view",
      "type": "function"
    },
    {
      "constant": true,
      "inputs": [],
      "name": "getAdmin",
      "outputs": [
        {
          "internalType": "address",
          "name": "",
          "type": "address"
        }
      ],
      "payable": false,
      "stateMutability": "view",
      "type": "function"
    },
    {
      "constant": false,
      "inputs": [
        {
          "internalType": "string",
          "name": "_header",
          "type": "string"
        }
      ],
      "name": "addCandidate",
      "outputs": [],
      "payable": false,
      "stateMutability": "nonpayable",
      "type": "function"
    },
    {
      "constant": false,
      "inputs": [
        {
          "internalType": "string",
          "name": "_adminName",
          "type": "string"
        },
        {
          "internalType": "string",
          "name": "_adminEmail",
          "type": "string"
        },
        {
          "internalType": "string",
          "name": "_adminTitle",
          "type": "string"
        },
        {
          "internalType": "string",
          "name": "_electionTitle",
          "type": "string"
        },
        {
          "internalType": "string",
          "name": "_organizationTitle",
          "type": "string"
        }
      ],
      "name": "setElectionDetails",
      "outputs": [],
      "payable": false,
      "stateMutability": "nonpayable",
      "type": "function"
    },
    {
      "constant": true,
      "inputs": [],
      "name": "getAdminName",
      "outputs": [
        {
          "internalType": "string",
          "name": "",
          "type": "string"
        }
      ],
      "payable": false,
      "stateMutability": "view",
      "type": "function"
    },
    {
      "constant": true,
      "inputs": [],
      "name": "getAdminEmail",
      "outputs": [
        {
          "internalType": "string",
          "name": "",
          "type": "string"
        }
      ],
      "payable": false,
      "stateMutability": "view",
      "type": "function"
    },
    {
      "constant": true,
      "inputs": [],
      "name": "getAdminTitle",
      "outputs": [
        {
          "internalType": "string",
          "name": "",
          "type": "string"
        }
      ],
      "payable": false,
      "stateMutability": "view",
      "type": "function"
    },
    {
      "constant": true,
      "inputs": [],
      "name": "getElectionTitle",
      "outputs": [
        {
          "internalType": "string",
          "name": "",
          "type": "string"
        }
      ],
      "payable": false,
      "stateMutability": "view",
      "type": "function"
    },
    {
      "constant": true,
      "inputs": [],
      "name": "getOrganizationTitle",
      "outputs": [
        {
          "internalType": "string",
          "name": "",
          "type": "string"
        }
      ],
      "payable": false,
      "stateMutability": "view",
      "type": "function"
    },
    {
      "constant": true,
      "inputs": [],
      "name": "getTotalCandidate",
      "outputs": [
        {
          "internalType": "uint256",
          "name": "",
          "type": "uint256"
        }
      ],
      "payable": false,
      "stateMutability": "view",
      "type": "function"
    },
    {
      "constant": true,
      "inputs": [],
      "name": "getTotalVoter",
      "outputs": [
        {
          "internalType": "uint256",
          "name": "",
          "type": "uint256"
        }
      ],
      "payable": false,
      "stateMutability": "view",
      "type": "function"
    },
    {
      "constant": false,
      "inputs": [
        {
          "internalType": "string",
          "name": "_name",
          "type": "string"
        },
        {
          "internalType": "string",
          "name": "_phone",
          "type": "string"
        }
      ],
      "name": "registerAsVoter",
      "outputs": [],
      "payable": false,
      "stateMutability": "nonpayable",
      "type": "function"
    },
    {
      "constant": false,
      "inputs": [
        {
          "internalType": "bool",
          "name": "_verifedStatus",
          "type": "bool"
        },
        {
          "internalType": "address",
          "name": "voterAddress",
          "type": "address"
        }
      ],
      "name": "verifyVoter",
      "outputs": [],
      "payable": false,
      "stateMutability": "nonpayable",
      "type": "function"
    },
    {
      "constant": false,
      "inputs": [
        {
          "internalType": "uint256",
          "name": "candidateId",
          "type": "uint256"
        }
      ],
      "name": "vote",
      "outputs": [],
      "payable": false,
      "stateMutability": "nonpayable",
      "type": "function"
    },
    {
      "constant": false,
      "inputs": [],
      "name": "endElection",
      "outputs": [],
      "payable": false,
      "stateMutability": "nonpayable",
      "type": "function"
    },
    {
      "constant": true,
      "inputs": [],
      "name": "getStart",
      "outputs": [
        {
          "internalType": "bool",
          "name": "",
          "type": "bool"
        }
      ],
      "payable": false,
      "stateMutability": "view",
      "type": "function"
    },
    {
      "constant": true,
      "inputs": [],
      "name": "getEnd",
      "outputs": [
        {
          "internalType": "bool",
          "name": "",
          "type": "bool"
        }
      ],
      "payable": false,
      "stateMutability": "view",
      "type": "function"
    }
  ],
  "bytecode": "0x608060405234801561001057600080fd5b50336000806101000a81548173ffffffffffffffffffffffffffffffffffffffff021916908373ffffffffffffffffffffffffffffffffffffffff160217905550600060018190555060006002819055506000600360006101000a81548160ff0219169083151502179055506000600360016101000a81548160ff021916908315150217905550611bda806100a66000396000f3fe608060405234801561001057600080fd5b506004361061012c5760003560e01c806364d198a1116100ad578063c5292c6711610071578063c5292c6714610a71578063da58c7d914610a93578063e173730c14610b01578063f851a44014610b84578063fee0d19a14610bce5761012c565b806364d198a1146108e15780636e9960c3146108ff578063831318f1146109495780639f05a36d146109cc578063be081b6f146109ee5761012c565b806348343175116100f457806348343175146105d2578063506b8e0a146106555780635938750d146106a557806359f78468146108225780636247e5321461082c5761012c565b80630121b93f146101315780630b93400e1461015f5780630e2354cf1461017d578063253e74e214610200578063462e91ec14610517575b600080fd5b61015d6004803603602081101561014757600080fd5b8101908080359060200190929190505050610d20565b005b610167610ea3565b6040518082815260200191505060405180910390f35b610185610ead565b6040518080602001828103825283818151815260200191508051906020019080838360005b838110156101c55780820151818401526020810190506101aa565b50505050905090810190601f1680156101f25780820380516001836020036101000a031916815260200191505b509250505060405180910390f35b610515600480360360a081101561021657600080fd5b810190808035906020019064010000000081111561023357600080fd5b82018360208201111561024557600080fd5b8035906020019184600183028401116401000000008311171561026757600080fd5b91908080601f016020809104026020016040519081016040528093929190818152602001838380828437600081840152601f19601f820116905080830192505050505050509192919290803590602001906401000000008111156102ca57600080fd5b8201836020820111156102dc57600080fd5b803590602001918460018302840111640100000000831117156102fe57600080fd5b91908080601f016020809104026020016040519081016040528093929190818152602001838380828437600081840152601f19601f8201169050808301925050505050505091929192908035906020019064010000000081111561036157600080fd5b82018360208201111561037357600080fd5b8035906020019184600183028401116401000000008311171561039557600080fd5b91908080601f016020809104026020016040519081016040528093929190818152602001838380828437600081840152601f19601f820116905080830192505050505050509192919290803590602001906401000000008111156103f857600080fd5b82018360208201111561040a57600080fd5b8035906020019184600183028401116401000000008311171561042c57600080fd5b91908080601f016020809104026020016040519081016040528093929190818152602001838380828437600081840152601f19601f8201169050808301925050505050505091929192908035906020019064010000000081111561048f57600080fd5b8201836020820111156104a157600080fd5b803590602001918460018302840111640100000000831117156104c357600080fd5b91908080601f016020809104026020016040519081016040528093929190818152602001838380828437600081840152601f19601f820116905080830192505050505050509192919290505050610f52565b005b6105d06004803603602081101561052d57600080fd5b810190808035906020019064010000000081111561054a57600080fd5b82018360208201111561055c57600080fd5b8035906020019184600183028401116401000000008311171561057e57600080fd5b91908080601f016020809104026020016040519081016040528093929190818152602001838380828437600081840152601f19601f8201169050808301925050505050505091929192905050506110a5565b005b6105da611184565b6040518080602001828103825283818151815260200191508051906020019080838360005b8381101561061a5780820151818401526020810190506105ff565b50505050905090810190601f1680156106475780820380516001836020036101000a031916815260200191505b509250505060405180910390f35b6106a36004803603604081101561066b57600080fd5b81019080803515159060200190929190803573ffffffffffffffffffffffffffffffffffffffff169060200190929190505050611229565b005b6106e7600480360360208110156106bb57600080fd5b81019080803573ffffffffffffffffffffffffffffffffffffffff1690602001909291905050506112e0565b604051808773ffffffffffffffffffffffffffffffffffffffff1673ffffffffffffffffffffffffffffffffffffffff1681526020018060200180602001861515151581526020018515151515815260200184151515158152602001838103835288818151815260200191508051906020019080838360005b8381101561077b578082015181840152602081019050610760565b50505050905090810190601f1680156107a85780820380516001836020036101000a031916815260200191505b50838103825287818151815260200191508051906020019080838360005b838110156107e15780820151818401526020810190506107c6565b50505050905090810190601f16801561080e5780820380516001836020036101000a031916815260200191505b509850505050505050505060405180910390f35b61082a611493565b005b6108586004803603602081101561084257600080fd5b8101908080359060200190929190505050611524565b6040518084815260200180602001838152602001828103825284818151815260200191508051906020019080838360005b838110156108a4578082015181840152602081019050610889565b50505050905090810190601f1680156108d15780820380516001836020036101000a031916815260200191505b5094505050505060405180910390f35b6108e96115e6565b6040518082815260200191505060405180910390f35b6109076115f0565b604051808273ffffffffffffffffffffffffffffffffffffffff1673ffffffffffffffffffffffffffffffffffffffff16815260200191505060405180910390f35b610951611619565b6040518080602001828103825283818151815260200191508051906020019080838360005b83811015610991578082015181840152602081019050610976565b50505050905090810190601f1680156109be5780820380516001836020036101000a031916815260200191505b509250505060405180910390f35b6109d46116be565b604051808215151515815260200191505060405180910390f35b6109f66116d5565b6040518080602001828103825283818151815260200191508051906020019080838360005b83811015610a36578082015181840152602081019050610a1b565b50505050905090810190601f168015610a635780820380516001836020036101000a031916815260200191505b509250505060405180910390f35b610a7961177a565b604051808215151515815260200191505060405180910390f35b610abf60048036036020811015610aa957600080fd5b8101908080359060200190929190505050611791565b604051808273ffffffffffffffffffffffffffffffffffffffff1673ffffffffffffffffffffffffffffffffffffffff16815260200191505060405180910390f35b610b096117cd565b6040518080602001828103825283818151815260200191508051906020019080838360005b83811015610b49578082015181840152602081019050610b2e565b50505050905090810190601f168015610b765780820380516001836020036101000a031916815260200191505b509250505060405180910390f35b610b8c611872565b604051808273ffffffffffffffffffffffffffffffffffffffff1673ffffffffffffffffffffffffffffffffffffffff16815260200191505060405180910390f35b610d1e60048036036040811015610be457600080fd5b8101908080359060200190640100000000811115610c0157600080fd5b820183602082011115610c1357600080fd5b80359060200191846001830284011164010000000083111715610c3557600080fd5b91908080601f016020809104026020016040519081016040528093929190818152602001838380828437600081840152601f19601f82011690508083019250505050505050919291929080359060200190640100000000811115610c9857600080fd5b820183602082011115610caa57600080fd5b80359060200191846001830284011164010000000083111715610ccc57600080fd5b91908080601f016020809104026020016040519081016040528093929190818152602001838380828437600081840152601f19601f820116905080830192505050505050509192919290505050611897565b005b60001515600b60003373ffffffffffffffffffffffffffffffffffffffff1673ffffffffffffffffffffffffffffffffffffffff16815260200190815260200160002060030160019054906101000a900460ff16151514610d8057600080fd5b60011515600b60003373ffffffffffffffffffffffffffffffffffffffff1673ffffffffffffffffffffffffffffffffffffffff16815260200190815260200160002060030160009054906101000a900460ff16151514610de057600080fd5b60011515600360009054906101000a900460ff16151514610e0057600080fd5b60001515600360019054906101000a900460ff16151514610e2057600080fd5b600160046000838152602001908152602001600020600201600082825401925050819055506001600b60003373ffffffffffffffffffffffffffffffffffffffff1673ffffffffffffffffffffffffffffffffffffffff16815260200190815260200160002060030160016101000a81548160ff02191690831515021790555050565b6000600254905090565b606060056000018054600181600116156101000203166002900480601f016020809104026020016040519081016040528092919081815260200182805460018160011615610100020316600290048015610f485780601f10610f1d57610100808354040283529160200191610f48565b820191906000526020600020905b815481529060010190602001808311610f2b57829003601f168201915b5050505050905090565b6000809054906101000a900473ffffffffffffffffffffffffffffffffffffffff1673ffffffffffffffffffffffffffffffffffffffff163373ffffffffffffffffffffffffffffffffffffffff1614610fab57600080fd5b6040518060a001604052808681526020018581526020018481526020018381526020018281525060056000820151816000019080519060200190610ff0929190611a8d565b50602082015181600101908051906020019061100d929190611a8d565b50604082015181600201908051906020019061102a929190611a8d565b506060820151816003019080519060200190611047929190611a8d565b506080820151816004019080519060200190611064929190611a8d565b509050506001600360006101000a81548160ff0219169083151502179055506000600360016101000a81548160ff0219169083151502179055505050505050565b6000809054906101000a900473ffffffffffffffffffffffffffffffffffffffff1673ffffffffffffffffffffffffffffffffffffffff163373ffffffffffffffffffffffffffffffffffffffff16146110fe57600080fd5b611106611b0d565b604051806060016040528060015481526020018381526020016000815250905080600460006001548152602001908152602001600020600082015181600001556020820151816001019080519060200190611162929190611a8d565b5060408201518160020155905050600180600082825401925050819055505050565b606060056004018054600181600116156101000203166002900480601f01602080910402602001604051908101604052809291908181526020018280546001816001161561010002031660029004801561121f5780601f106111f45761010080835404028352916020019161121f565b820191906000526020600020905b81548152906001019060200180831161120257829003601f168201915b5050505050905090565b6000809054906101000a900473ffffffffffffffffffffffffffffffffffffffff1673ffffffffffffffffffffffffffffffffffffffff163373ffffffffffffffffffffffffffffffffffffffff161461128257600080fd5b81600b60008373ffffffffffffffffffffffffffffffffffffffff1673ffffffffffffffffffffffffffffffffffffffff16815260200190815260200160002060030160006101000a81548160ff0219169083151502179055505050565b600b6020528060005260406000206000915090508060000160009054906101000a900473ffffffffffffffffffffffffffffffffffffffff1690806001018054600181600116156101000203166002900480601f0160208091040260200160405190810160405280929190818152602001828054600181600116156101000203166002900480156113b25780601f10611387576101008083540402835291602001916113b2565b820191906000526020600020905b81548152906001019060200180831161139557829003601f168201915b505050505090806002018054600181600116156101000203166002900480601f0160208091040260200160405190810160405280929190818152602001828054600181600116156101000203166002900480156114505780601f1061142557610100808354040283529160200191611450565b820191906000526020600020905b81548152906001019060200180831161143357829003601f168201915b5050505050908060030160009054906101000a900460ff16908060030160019054906101000a900460ff16908060030160029054906101000a900460ff16905086565b6000809054906101000a900473ffffffffffffffffffffffffffffffffffffffff1673ffffffffffffffffffffffffffffffffffffffff163373ffffffffffffffffffffffffffffffffffffffff16146114ec57600080fd5b6001600360016101000a81548160ff0219169083151502179055506000600360006101000a81548160ff021916908315150217905550565b6004602052806000526040600020600091509050806000015490806001018054600181600116156101000203166002900480601f0160208091040260200160405190810160405280929190818152602001828054600181600116156101000203166002900480156115d65780601f106115ab576101008083540402835291602001916115d6565b820191906000526020600020905b8154815290600101906020018083116115b957829003601f168201915b5050505050908060020154905083565b6000600154905090565b60008060009054906101000a900473ffffffffffffffffffffffffffffffffffffffff16905090565b606060056001018054600181600116156101000203166002900480601f0160208091040260200160405190810160405280929190818152602001828054600181600116156101000203166002900480156116b45780601f10611689576101008083540402835291602001916116b4565b820191906000526020600020905b81548152906001019060200180831161169757829003601f168201915b5050505050905090565b6000600360019054906101000a900460ff16905090565b606060056002018054600181600116156101000203166002900480601f0160208091040260200160405190810160405280929190818152602001828054600181600116156101000203166002900480156117705780601f1061174557610100808354040283529160200191611770565b820191906000526020600020905b81548152906001019060200180831161175357829003601f168201915b5050505050905090565b6000600360009054906101000a900460ff16905090565b600a818154811061179e57fe5b906000526020600020016000915054906101000a900473ffffffffffffffffffffffffffffffffffffffff1681565b606060056003018054600181600116156101000203166002900480601f0160208091040260200160405190810160405280929190818152602001828054600181600116156101000203166002900480156118685780601f1061183d57610100808354040283529160200191611868565b820191906000526020600020905b81548152906001019060200180831161184b57829003601f168201915b5050505050905090565b6000809054906101000a900473ffffffffffffffffffffffffffffffffffffffff1681565b61189f611b2e565b6040518060c001604052803373ffffffffffffffffffffffffffffffffffffffff16815260200184815260200183815260200160001515815260200160001515815260200160011515815250905080600b60003373ffffffffffffffffffffffffffffffffffffffff1673ffffffffffffffffffffffffffffffffffffffff16815260200190815260200160002060008201518160000160006101000a81548173ffffffffffffffffffffffffffffffffffffffff021916908373ffffffffffffffffffffffffffffffffffffffff1602179055506020820151816001019080519060200190611990929190611a8d565b5060408201518160020190805190602001906119ad929190611a8d565b5060608201518160030160006101000a81548160ff02191690831515021790555060808201518160030160016101000a81548160ff02191690831515021790555060a08201518160030160026101000a81548160ff021916908315150217905550905050600a3390806001815401808255809150509060018203906000526020600020016000909192909190916101000a81548173ffffffffffffffffffffffffffffffffffffffff021916908373ffffffffffffffffffffffffffffffffffffffff160217905550506001600260008282540192505081905550505050565b828054600181600116156101000203166002900490600052602060002090601f016020900481019282601f10611ace57805160ff1916838001178555611afc565b82800160010185558215611afc579182015b82811115611afb578251825591602001919060010190611ae0565b5b509050611b099190611b80565b5090565b60405180606001604052806000815260200160608152602001600081525090565b6040518060c00160405280600073ffffffffffffffffffffffffffffffffffffffff16815260200160608152602001606081526020016000151581526020016000151581526020016000151581525090565b611ba291905b80821115611b9e576000816000905550600101611b86565b5090565b9056fea265627a7a723158201a342f414a540030dba44a876beba858ec32765f4454659abdb12db07dce7e5664736f6c63430005100032",
  "source": "// SPDX-License-Identifier: MIT\npragma solidity >=0.4.21 <0.9.0;\n\ncontract Election {\n    address public admin;\n    uint256 candidateCount;\n    uint256 voterCount;\n    bool start;\n    bool end;\n\n    constructor() public {\n        // Initilizing default values\n        admin = msg.sender;\n        candidateCount = 0;\n        voterCount = 0;\n        start = false;\n        end = false;\n    }\n\n    function getAdmin() public view returns (address) {\n        // Returns account address used to deploy contract (i.e. admin)\n        return admin;\n    }\n\n    modifier onlyAdmin() {\n        // Modifier for only admin access\n        require(msg.sender == admin);\n        _;\n    }\n    // Modeling a candidate\n    struct Candidate {\n        uint256 candidateId;\n        string header;\n        uint256 voteCount;\n    }\n    mapping(uint256 => Candidate) public candidateDetails;\n\n    // Adding new candidates\n    function addCandidate(string memory _header)\n        public\n        // Only admin can add\n        onlyAdmin\n    {\n        Candidate memory newCandidate =\n            Candidate({\n                candidateId: candidateCount,\n                header: _header,\n                voteCount: 0\n            });\n        candidateDetails[candidateCount] = newCandidate;\n        candidateCount += 1;\n    }\n\n    // Modeling a Election Details\n    struct ElectionDetails {\n        string adminName;\n        string adminEmail;\n        string adminTitle;\n        string electionTitle;\n        string organizationTitle;\n    }\n    ElectionDetails electionDetails;\n\n    function setElectionDetails(\n        string memory _adminName,\n        string memory _adminEmail,\n        string memory _adminTitle,\n        string memory _electionTitle,\n        string memory _organizationTitle\n    )\n        public\n        // Only admin can add\n        onlyAdmin\n    {\n        electionDetails = ElectionDetails(\n            _adminName,\n            _adminEmail,\n            _adminTitle,\n            _electionTitle,\n            _organizationTitle\n        );\n        start = true;\n        end = false;\n    }\n\n    // Get Elections details\n    function getAdminName() public view returns (string memory) {\n        return electionDetails.adminName;\n    }\n\n    function getAdminEmail() public view returns (string memory) {\n        return electionDetails.adminEmail;\n    }\n\n    function getAdminTitle() public view returns (string memory) {\n        return electionDetails.adminTitle;\n    }\n\n    function getElectionTitle() public view returns (string memory) {\n        return electionDetails.electionTitle;\n    }\n\n    function getOrganizationTitle() public view returns (string memory) {\n        return electionDetails.organizationTitle;\n    }\n\n    // Get candidates count\n    function getTotalCandidate() public view returns (uint256) {\n        // Returns total number of candidates\n        return candidateCount;\n    }\n\n    // Get voters count\n    function getTotalVoter() public view returns (uint256) {\n        // Returns total number of voters\n        return voterCount;\n    }\n\n    // Modeling a voter\n    struct Voter {\n        address voterAddress;\n        string name;\n        string phone;\n        bool isVerified;\n        bool hasVoted;\n        bool isRegistered;\n    }\n    address[] public voters; // Array of address to store address of voters\n    mapping(address => Voter) public voterDetails;\n\n    // Request to be added as voter\n    function registerAsVoter(string memory _name, string memory _phone) public {\n        Voter memory newVoter =\n            Voter({\n                voterAddress: msg.sender,\n                name: _name,\n                phone: _phone,\n                hasVoted: false,\n                isVerified: false,\n                isRegistered: true\n            });\n        voterDetails[msg.sender] = newVoter;\n        voters.push(msg.sender);\n        voterCount += 1;\n    }\n\n    // Verify voter\n    function verifyVoter(bool _verifedStatus, address voterAddress)\n        public\n        // Only admin can verify\n        onlyAdmin\n    {\n        voterDetails[voterAddress].isVerified = _verifedStatus;\n    }\n\n    // Vote\n    function vote(uint256 candidateId) public {\n        require(voterDetails[msg.sender].hasVoted == false);\n        require(voterDetails[msg.sender].isVerified == true);\n        require(start == true);\n        require(end == false);\n        candidateDetails[candidateId].voteCount += 1;\n        voterDetails[msg.sender].hasVoted = true;\n    }\n\n    // End election\n    function endElection() public onlyAdmin {\n        end = true;\n        start = false;\n    }\n\n    // Get election start and end values\n    function getStart() public view returns (bool) {\n        return start;\n    }\n\n    function getEnd() public view returns (bool) {\n        return end;\n    }\n}\n",
  "sourcePath": "/home/c309linux/dVoting/contracts/Election.sol",
  "compiler": {
    "name": "solc",
    "version": "0.5.16+commit.9c3226ce.Emscripten.clang"
  },
  "schemaVersion": "3.4.9",
  "updatedAt": "2022-08-31T23:40:26.114Z",
  "networkType": "ethereum",
  "devdoc": {
    "methods": {}
  },
  "userdoc": {
    "methods": {}
  }
}